:020000040800F2
:100000008842002089010008C52000081B1E000846
:10001000C12000088F0200087127000800000000BE
:10002000000000000000000000000000F5200008B3
:100030004103000800000000C9200008F720000864
:10004000A3010008A3010008A3010008A301000800
:10005000A3010008A3010008A3010008A3010008F0
:10006000A3010008A3010008A3010008A3010008E0
:10007000A3010008A301000895020008A5020008DA
:10008000A3010008A3010008A3010008A3010008C0
:10009000A3010008A3010008A3010008A3010008B0
:1000A000A3010008A3010008A3010008A3010008A0
:1000B000A3010008A3010008A3010008A301000890
:1000C000A3010008A3010008A3010008A301000880
:1000D000A301000861270008A3010008A30100088C
:1000E000A3010008A3010008A301000800F002F822
:1000F00000F03AF80AA090E8000C82448344AAF188
:100100000107DA4501D100F02FF8AFF2090EBAE885
:100110000F0013F0010F18BFFB1A43F0010318473B
:1001200080290000A0290000103A24BF78C878C1B7
:10013000FAD8520724BF30C830C144BF04680C60ED
:10014000704700000023002400250026103A28BF35
:1001500078C1FBD8520728BF30C148BF0B60704739
:100160001FB51FBD10B510BD00F058F81146FFF7C0
:10017000F7FF02F029FC00F076F803B4FFF7F2FF76
:1001800003BC00F07DF8000009488047094800479B
:10019000FEE7FEE7FEE7FEE7FEE7FEE7FEE7FEE737
:1001A000FEE7FEE704480549054A064B7047000094
:1001B00065210008ED000008880200208842002028
:1001C00088220020882200204FF0000200B513464C
:1001D00094469646203922BFA0E80C50A0E80C5067
:1001E000B1F12001BFF4F7AF090728BFA0E80C5018
:1001F00048BF0CC05DF804EB890028BF40F8042B11
:1002000008BF704748BF20F8022B11F0804F18BF7D
:1002100000F8012B7047704770477047754600F033
:100220002BF8AE4605006946534620F00700854688
:1002300018B020B5FFF7B6FFBDE820404FF000062C
:100240004FF000074FF000084FF0000B21F00701BE
:10025000AC46ACE8C009ACE8C009ACE8C009ACE801
:10026000C0098D46704710B50446AFF300802046A4
:10027000BDE81040FFF781BF00487047240200200E
:1002800001491820ABBEFEE726000200704700BF00
:10029000FEE7000010B5024800F0DAF810BD0000DB
:1002A000E001002010B5024800F0D2F810BD0000B7
:1002B0009C010020064B5968064B1B6800FB03F2AB
:1002C00000BF034B5B685B1A9342FAD37047000090
:1002D000001000E0280000201249096841F08071F8
:1002E000104A11600021104A51601146096841F01E
:1002F000010111600D4941430D4A11601146096821
:100300004FF47A72B1FBF2F10A4A116008490968A8
:10031000064AB1FBF2F1084A11600021074A116058
:1003200070470000FCED00E0001000E040420F00CC
:100330002000002024000020280000202C000020A5
:10034000704772B600BFFEE70146002291F8210017
:10035000022808D00420886300BF002081F8200014
:1003600000BF012070470868006820F00E000B688D
:1003700018600868006820F001000B68186091F8A8
:10038000403001209840CB6B5860012081F821005B
:1003900000BF002081F8200000BF1046E2E7000007
:1003A00070B50446002594F82100022803D00420EB
:1003B000A063012548E02068006820F00E00216855
:1003C00008602068006820F00100216808601F496B
:1003D0002068884201D1012026E01C4914312068A0
:1003E000884201D110201FE0184928312068884236
:1003F00001D1801518E015493C312068884201D1AF
:10040000801411E0114950312068884202D14FF424
:10041000803009E00D4964312068884202D14FF4F0
:10042000801001E04FF080700849083948600120D1
:1004300084F8210000BF002084F8200000BF606B1A
:1004400010B12046616B8847284670BD0800024005
:1004500070B50446E06B05682068066894F84010A3
:10046000042088402840002846D006F004000028D8
:1004700042D02068006800F0200028B92068006899
:1004800020F004002168086057492068884201D1A3
:10049000042027E0544914312068884201D14020CB
:1004A00020E0514928312068884201D1001519E027
:1004B0004D493C312068884202D14FF4804011E020
:1004C000494950312068884202D14FF4802009E028
:1004D000454964312068884202D14FF4800001E030
:1004E0004FF08060404908394860E06A00287AD0BF
:1004F0002046E16A884776E094F840100220884060
:100500002840A0B306F0020088B32068006800F01D
:10051000200040B92068006820F00A0021680860C7
:10052000012084F8210030492068884201D102204E
:1005300028E02D4914312068884201D1202021E093
:10054000294928312068884201D140151AE02649FE
:100550003C312068884202D14FF4005012E0224919
:1005600050312068884203D14FF400300AE017E090
:100570001D4964312068884202D14FF4001001E027
:100580004FF0007018490839486000BF002084F817
:10059000200000BFA06A30B32046A16A884722E04D
:1005A00094F84010082088402840E0B106F0080088
:1005B000C8B12068006820F00E002168086094F837
:1005C000401001208840E16B48600120A06384F85E
:1005D000210000BF002084F8200000BF206B10B174
:1005E0002046216B884770BD08000240014600226A
:1005F00009B901207047164B0868C01A1423B0FBD4
:10060000F3F08000086412480838C863022081F8BB
:1006100021000868026843F6F0708243D1E90103C3
:100620001843CB6818430B6918434B6918438B690F
:100630001843CB69184302430868026000208863AE
:10064000012081F82100002081F8200000BFD1E7BF
:100650000800024070B5044600F0AEF90646254693
:10066000681C10B104480078054400BF00F0A4F9EC
:10067000801BA842FAD370BD0C0000202DE9F8477A
:100680000346002294466EE14FF0010808FA02F496
:10069000D1F8008008EA0400A0427DD1DFF8DCA296
:1006A000D1F80480A8EB0A09D0453AD014DCB8F19F
:1006B000030F50D009DCB8F1000F31D0B8F1010FB1
:1006C0001CD0B8F1020F49D120E0B8F1110F18D0B9
:1006D000B8F1120F42D11EE0B9F5881F25D006DC13
:1006E000B9F5803F20D0B9F5801F37D11AE0B9F5B0
:1006F000001F18D0B9F5041F30D117E0D1F80CC095
:100700002DE0D1F80C8008F1040C28E0D1F80C8021
:1007100008F1080C23E0D1F80C8008F10C0C1EE065
:1007200000BF00BF00BF00BF00BF00BFD1F80880FE
:10073000B8F1000F02D14FF0040C0BE0D1F80880A3
:10074000B8F1010F03D14FF0080C1C6102E04FF02B
:10075000080C5C6103E04FF0000C00E000BF00BF3C
:10076000FF2801D8984601E003F104084646FF2817
:1007700002D84FEA820803E0A2F108084FEA88088D
:100780004746D6F800804FF00F0909FA07F928EA22
:1007900009080CFA07F900E088E048EA0908C6F8F9
:1007A0000080D1F8048008F08058B8F1805F7DD1D6
:1007B00000BFDFF8CC81D8F8188048F00108DFF8D6
:1007C000C091C9F81880C846D8F8188008F0010808
:1007D000CDF8008000BF00BF4FEAB9384FEA920958
:1007E00058F829504FEA82784FEA18794FF00F08ED
:1007F00008FA09F825EA0805DFF88881434502D19F
:100800004FF0000816E0DFF88081434502D14FF039
:1008100001080FE0DFF87481434502D14FF0020870
:1008200008E0DFF86C81434502D14FF0030801E096
:100830004FF004084FEA82794FEA197908FA09F86B
:1008400048EA0505DFF84C814FEA920948F829503B
:10085000D1F8048008F48018B8F5801F0AD1DFF8B9
:100860003881D8F8008048EA0008DFF82C91C9F8F0
:10087000008009E0DFF82081D8F8008028EA00082D
:10088000DFF81491C9F80080D1F8048008F400184A
:10089000B8F5001F10D1DFF8008108F10408D8F87E
:1008A000008048EA0008DFF8F09000E05AE009F123
:1008B0000409C9F800800DE0DFF8DC8008F10408C5
:1008C000D8F8008028EA0008DFF8CC9009F1040984
:1008D000C9F80080D1F8048008F40038B8F5003F6A
:1008E0000ED1DFF8B480A8F10408D8F8008048EAF7
:1008F0000008DFF8A490A9F10409C9F800800DE010
:10090000DFF89480A8F10408D8F8008028EA0008ED
:10091000DFF88490A9F10409C9F80080D1F80480B7
:1009200008F48038B8F5803F0ED1DFF86C80A8F16C
:100930000808D8F8008048EA0008DFF85C90A9F1C0
:100940000809C9F800800DE0DFF84C80A8F108081C
:10095000D8F8008028EA0008DFF83C90A9F10809DF
:10096000C9F80080521CD1F8008028FA02F8B8F1CA
:10097000000F7FF489AEBDE8F88700000000111079
:100980000010024000080140000C0140001001402E
:100990000014014008000140080401400246936829
:1009A0000B400BB1012000E0002070470AB101614B
:1009B00001E00B04036170470148006870470000C4
:1009C0000400002070B504460CB9012070BD94F8F5
:1009D0003D0028B9002084F83C00204600F0DAF8F9
:1009E000242084F83D002068006820F00100216880
:1009F00008602068006840F40040216808602068B2
:100A0000006820F400402168086000F0A7FA05465D
:100A10005C496068884206D85B48854201D2012063
:100A200007E0002005E05948854201D2012000E09E
:100A30000020012800D1C9E75548B5FBF0F6206831
:100A4000406820F03F003043216848604D496068AD
:100A5000884201D8701C07E04FF4967070434FF441
:100A60007A71B0FBF1F0401C2168096A21F03F0166
:100A700008432168086243496068884214D8681EA8
:100A800061684900B0FBF1F0401CC0F30B00042882
:100A900001D204203DE0681E61684900B0FBF1F01E
:100AA000401CC0F30B0034E0A06838B9681E6168D0
:100AB00001EB4101B0FBF1F0401C0AE0681E6168E7
:100AC00001EBC10202EB0111B0FBF1F0401C40F45C
:100AD0008040C0F30B0008B901201AE0A06848B9B3
:100AE000681E616801EB4101B0FBF1F0401CC0F3EE
:100AF0000B000CE0681E616801EBC10202EB011102
:100B0000B0FBF1F0401CC0F30B0040F4804040F417
:100B100000402168C9694CF6FF729143084321687F
:100B2000C861D4E9070108432168096821F0C001C0
:100B3000084321680860D4E90310084321688968E4
:100B400048F2FF329143084321688860D4E90501E7
:100B500008432168C96821F0FF0108432168C86083
:100B60002068006840F001002168086000202064CF
:100B7000202084F83D000020206384F83E0000BF60
:100B800024E70000A086010080841E0000093D00CB
:100B900040420F0010B586B004460020029003903A
:100BA000049005901A49206888422FD100BF194847
:100BB000806940F00800174988610846806900F0A4
:100BC0000800019000BF00BF4FF440700290122057
:100BD00003900320059002A90F48FFF74FFD00BFC7
:100BE0000E49486840F0E06040F00200486000BFF5
:100BF00000BF0848C06940F400100649C8610846B3
:100C0000C06900F40010019000BF00BF06B010BD25
:100C10000054004000100240000C01400000014060
:100C2000034800680349097808440149086070478F
:100C3000040000200C00002010B50848006840F0B7
:100C4000100006490860032000F0A8F80F2000F00B
:100C500007F800F02BF8002010BD00000020024033
:100C600070B504460E4800784FF47A71B1FBF0F08D
:100C70000C490968B1FBF0F5284600F0F9FB08B112
:100C8000012070BD102C07D200222146501E00F01A
:100C900047F80548046001E00120F2E70020F0E792
:100CA0000C000020100000200800002008B500BF44
:100CB0001148806940F001000F4988610846806949
:100CC00000F00100009000BF00BF00BF0846C069EF
:100CD00040F08050C8610846C06900F08050009024
:100CE00000BF00BF00BF0549486820F0E06040F049
:100CF0000070486000BF08BD0010024000000140C5
:100D000001460846002809DB00F01F0301229A4033
:100D100043099B0003F1E023C3F8002100BF7047A3
:100D20002DE9F05F80460D461646002701F022FDB2
:100D3000074639462A46334601F00700C0F1070A44
:100D4000BAF1040F02D94FF0040A01E0C0F1070A1A
:100D5000D14600F1040ABAF1070F02D24FF0000A9F
:100D600001E0A0F1030AD4464FF0010A0AFA09FA99
:100D7000AAF1010A0AEA020A0AFA0CFA4FF0010B78
:100D80000BFA0CFBABF1010B0BEA030B4AEA0B0469
:100D90002146404601F0F6FCBDE8F09F00BF00F0A0
:100DA0000702064B19684FF6FF031940044B0B432B
:100DB00043EA0221014B196000BF70470CED00E0CF
:100DC0000000FA0570B504460D460CB9012070BD4F
:100DD0005A48006800F00700A8420ED25748006841
:100DE00020F007002843554908600846006800F0D5
:100DF0000700A84201D00120E9E7207800F00200B6
:100E000002281DD1207800F00400042805D14C48A8
:100E1000406840F4E0604A494860207800F00800EB
:100E2000082805D14648406840F46050444948606D
:100E30004348406820F0F000A168084340494860FA
:100E4000207800F0010078B36068012806D13C48A2
:100E5000006800F4003090B90120B8E7606802280B
:100E600006D13748006800F0007040B90120AEE7B5
:100E70003348006800F0020008B90120A7E73048B5
:100E8000406820F00300616808432D494860FFF77F
:100E900093FD064609E0FFF78FFD801B41F2883184
:100EA000884202D9032092E707E02548406800F015
:100EB0000C006168B0EB810FEDD12048006800F0B4
:100EC0000700A8420ED91D48006820F007002843FB
:100ED0001A4908600846006800F00700A84201D0DF
:100EE000012074E7207800F00400042807D114489A
:100EF000406820F4E060E1680843114948602078C8
:100F000000F00800082808D10D48406820F460501F
:100F1000216940EAC1000A49486000F03FF80849E9
:100F20004968C1F30311074A515CC840064908608B
:100F300006480068FFF794FE002048E700200240C2
:100F400000100240862A000810000020080000203F
:100F500001480068704700001000002000B5FFF74E
:100F6000F7FF04494968C1F30221034A515CC840B4
:100F700000BD000000100240962A000800B5FFF7EF
:100F8000E7FF04494968C1F3C221034A515CC840E4
:100F900000BD000000100240962A000870B5002134
:100FA0000022002400230020134D696801F00C0585
:100FB000F5B1042D02D0082D19D101E00F4819E038
:100FC0000F4DC1F38346AB5D01F4803555B10A4D39
:100FD0006D68C5F340450B4E725D084D5D43B5FB32
:100FE000F2F402E0084D03FB05F4204602E000BFE6
:100FF000024800BF00BF70BD0010024000127A001E
:10100000742A0008842A000800093D00F8B5044647
:101010000CB90120F8BD207800F00100002878D03C
:10102000F848406800F00C0004280CD0F5484068EF
:1010300000F00C00082811D1F248406800F480301C
:10104000B0F5803F0AD1EF48006800F40030002876
:101050005FD0606800285CD10120DBE700BF6068DA
:10106000B0F5803F06D1E748006840F48030E5499C
:10107000086028E0606858B9E248006820F48030D1
:10108000E04908600846006820F4802008601AE003
:101090006068B0F5A02F0BD1DA48006840F48020DA
:1010A000D84908600846006840F4803008600AE0CB
:1010B000D448006820F48030D249086008460068AF
:1010C00020F48020086000BF606888B1FFF774FCDE
:1010D000054606E0FFF770FC401B642801D9032099
:1010E00098E7C848006800F400300028F2D010E00B
:1010F000FFF762FC054606E0FFF75EFC401B642834
:1011000001D9032086E7BF48006800F400300028BA
:10111000F2D1207800F00200022857D1B948406887
:1011200000F00C0050B1B748406800F00C000828EF
:1011300018D1B448406800F4803098B9B1480068CC
:1011400000F0020020B12069012801D0012061E7F0
:10115000AC48006820F0F800616940EAC100A94984
:10116000086033E02069E8B10120A7490860FFF773
:1011700023FC054606E0FFF71FFC401B022801D9AF
:10118000032047E79F48006800F002000028F2D0E3
:101190009C48006820F0F800616940EAC100994964
:1011A000086013E0002098490860FFF705FC054639
:1011B00006E0FFF701FC401B022801D9032029E7C4
:1011C0009048006800F002000028F2D1207800F07A
:1011D000080008282DD1A069B8B101208B4908600A
:1011E000FFF7EAFB054606E0FFF7E6FB401B022897
:1011F00001D903200EE78348406A00F0020000286E
:10120000F2D0012000F062FF13E000207F49086067
:10121000FFF7D2FB054606E0FFF7CEFB401B022896
:1012200001D90320F6E67748406A00F00200002862
:10123000F2D1207800F00400042873D1002771480F
:10124000C06900F0805070B900BF6E48C06940F0BE
:1012500080506C49C8610846C06900F08050009019
:1012600000BF00BF01276A48006800F48070B0B971
:101270006748006840F4807065490860FFF79CFB90
:10128000054606E0FFF798FB401B642801D90320C0
:10129000C0E65F48006800F480700028F2D000BF0C
:1012A000E068012806D15748006A40F0010055491E
:1012B000086227E0E06858B95248006A20F001004F
:1012C000504908620846006A20F00400086219E0EC
:1012D000E06805280BD14B48006A40F004004949FA
:1012E00008620846006A40F0010008620AE04548CA
:1012F000006A20F00100434908620846006A20F0B5
:101300000400086200BFE068A0B1FFF755FB054686
:1013100009E0FFF751FB401B41F28831884202D9B6
:10132000032077E622E03748006A00F00200002838
:10133000EFD012E0FFF740FB054608E0FFF73CFB6B
:10134000401B41F28831884201D9032062E62D48D2
:10135000006A00F002000028F0D1012F05D12948D1
:10136000C06920F080502749C86100BFE069C8B358
:101370002448406800F00C00082860D0E06902288A
:1013800048D1002020490866FFF716FB054606E015
:10139000FFF712FB401B022801D903203AE6194847
:1013A000006800F000700028F2D1206AB0F5803F9C
:1013B00007D11448406820F40030A168084311495F
:1013C0004860D4E9080108430E49496821F47411C2
:1013D00008430C49486001200B490866FFF7ECFA06
:1013E000054607E03DE0FFF7E7FA401B022801D978
:1013F00003200FE60348006800F000700028F2D0D8
:101400002FE00000001002400000424280044242EF
:1014100000700040002014490866FFF7CDFA054629
:1014200006E0FFF7C9FA401B022801D90320F1E5C5
:101430000E48006800F000700028F2D111E0E06969
:10144000012800D1E6E50948466806F48031206AA3
:10145000814204D106F47011606A814201D00120FA
:10146000D8E50020D6E5000000004242001002400E
:1014700070B504462546681EB0F1807F01D3012077
:101480000FE0681E4FF0E02148610F214FF0FF3060
:1014900001F078F900204FF0E02188610720086111
:1014A000002070BD30B502460B4600BF92F83C00EC
:1014B000012801D1022030BD012082F83C0000BF8C
:1014C000022082F83D00106844681068816824F0AA
:1014D00070041868044310684460104D1068A842F6
:1014E0000BD01068B0F1804F07D00D4D1068A842A6
:1014F00003D00C4D1068A84205D121F08001586836
:10150000014310688160012082F83D0000BF002087
:1015100082F83C0000BF00BFCDE70000002C014076
:10152000000400400008004010B504460CB901203A
:1015300010BD94F83D0028B9002084F83C002046F6
:1015400000F026F8022084F83D00211D206800F0FC
:101550000BFE012084F8460000BF84F83E00012104
:101560003F200155402001554120015500BF00BFDB
:10157000012084F8420043200155442001554520B4
:10158000015500BF012084F83D000020D0E7000095
:1015900008B5124A016891420DD100BF1049C969CE
:1015A00041F002010E4AD1611146C96901F0020100
:1015B000009100BF11E00B4A016891420DD100BFBC
:1015C0000749C96941F00401054AD1611146C96959
:1015D00001F00401009100BF00BF08BD00040040FD
:1015E00000100240000800402DE9F04104460D467D
:1015F000002700BF94F83C00012802D10220BDE87A
:10160000F081012084F83C0000BF022084F83D00F6
:101610002068866826F0770626F47F462068866074
:101620002868502833D00CDC202850D004DC002857
:101630004BD0102851D149E0302849D040284CD116
:1016400039E060282DD0702807D0B0F5805F03D036
:10165000B0F5005F41D10DE041E0D5E902136A68C1
:10166000206800F0C3FD2068866846F07706206891
:10167000866034E0D5E902136A68206800F0B6FDA0
:101680002068806840F480402168886027E0EA682C
:101690006968206800F07AFE5021206800F0B1FDF2
:1016A0001DE0EA686968206800F083FE6021206818
:1016B00000F0A7FD13E0EA686968206800F066FEA4
:1016C0004021206800F09DFD09E000BF00BF00BF81
:1016D0002968206800F095FD01E0012700BF00BFE8
:1016E000012084F83D0000BF002084F83C0000BFCA
:1016F000384684E710B586B0044600200290039077
:10170000049005901B492068884216D100BF1A48F2
:10171000806940F00800184988610846806900F037
:101720000800019000BF00BF0220029003900590C6
:1017300002A91248FEF7A2FF1AE011492068884268
:1017400016D100BF0C48806940F008000A49886142
:101750000846806900F00800019000BF00BF4020EB
:10176000029002200390059002A90448FEF786FF2C
:1017700006B010BD0004004000100240000C014003
:10178000000800402DE9F04104460D4616460027AA
:1017900000BF94F83C00012802D10220BDE8F0818E
:1017A000012084F83C0000BF36B1042E1BD0082E67
:1017B00031D00C2E5ED145E02946206800F02AFD8C
:1017C0002068806940F0080021688861206880698D
:1017D00020F0040021688861206880692969084335
:1017E0002168886148E02946206800F043FD2068B0
:1017F000806940F40060216888612068806920F475
:1018000080602168886120688069296940EA012038
:101810002168886130E02946206800F05FFD20687B
:10182000C06940F008002168C8612068C06920F0E4
:1018300004002168C8612068C069296908432168DB
:10184000C86119E02946206800F07CFD2068C06965
:1018500040F400602168C8612068C06920F480609D
:101860002168C8612068C069296940EA01202168AF
:10187000C86101E0012700BF00BF00BF002084F85D
:101880003C0000BF384689E710B504460CB901207A
:1018900010BD94F83D0028B9002084F83C00204693
:1018A00000F025F8022084F83D00211D206800F09A
:1018B0005BFC012084F8460000BF84F83E00012153
:1018C0003F200155402001554120015500BF00BF78
:1018D000012084F842004320015544200155452051
:1018E000015500BF012084F83D000020D0E770477B
:1018F000704770472DE9F84F044620680568206856
:10190000C668206847694FF00009CA4605F00F090C
:10191000B9F1000F0AD105F0200038B106F020001F
:1019200020B1204600F0A9FDBDE8F88FB9F1000F05
:101930007BD007F0010018B906F49070002874D02D
:1019400005F0010030B106F4807018B1606C40F011
:101950000100606405F0040030B107F0010018B127
:10196000606C40F00200606405F0020030B107F0E6
:10197000010018B1606C40F00400606405F00800DC
:1019800048B106F0200010B907F0010018B1606CF2
:1019900040F008006064606C002845D005F020002D
:1019A00028B106F0200010B1204600F066FD206846
:1019B0004069C0F3801A606C00F0080010B9BAF1F9
:1019C000000F2CD0204600F012FD2068406900F086
:1019D000400000B300BF00BF2168143151E8001F70
:1019E00021F040002168143141E80002002AF3D1BF
:1019F00000BFE06B50B17748E16B4863E06BFEF7E6
:101A0000CFFC88B1E06B416B88470DE02046FFF7C3
:101A100070FF09E009E02046FFF76BFF04E0204675
:101A2000FFF767FF002060647EE7206B012877D115
:101A300005F01000002873D006F010000028FAD03E
:101A400000BF002000902068006800902068406877
:101A5000009000BF00BF2068406900F040000028EF
:101A60005FD0E06B006840681FFA80F8B8F1000FA3
:101A700055D0A08D404552DDA4F82E80E06B8069E2
:101A8000202843D000BF00BF21680C3151E8001F5F
:101A900021F4807021680C3141E80002002AF3D162
:101AA00000BF00BF00BF2168143151E8001F21F0C2
:101AB00001002168143141E80002002AF3D100BF7F
:101AC00000BF00BF2168143151E8001F21F0400021
:101AD0002168143141E80002002AF3D100BF202020
:101AE00084F842000020206300BF00BF21680C3151
:101AF00051E8001F21F0100021680C3141E800027C
:101B0000002AF3D100BFE06BFEF71EFC02206063E9
:101B1000A08DE28D801A81B22046FFF7E9FE03E72F
:101B200042E0A08DE18D401A1FFA80F8E08DD0B31D
:101B3000B8F1000F37D000BF00BF21680C3151E869
:101B4000001F21F4907021680C3141E80002002A46
:101B5000F3D100BF00BF00BF2168143151E8001F5E
:101B600021F001002168143141E80002002AF3D17C
:101B700000BF202084F842000020206300BF00BF87
:101B800021680C3151E8001F21F0100021680C3150
:101B900041E80002002AF3D100BF02206063414601
:101BA0002046FFF7A5FEBFE605F0800030B106F045
:101BB000800018B1204600F05DFDB5E605F040005C
:101BC00030B106F0400018B1204600F046FCABE60C
:101BD00000BFA9E6DB23000810B504460CB90120BC
:101BE00010BDA06900B100E000BF94F8410028B921
:101BF000002084F84000204600F02AF8242084F8D1
:101C000041002068C06820F400502168C860204668
:101C100000F0B2FC2068006920F49040216808615F
:101C20002068406920F02A00216848612068C06867
:101C300040F400502168C86000206064202084F8CF
:101C4000410084F842000020606300BFC8E7000044
:101C500010B586B0044600200290039004900590D1
:101C600037492068884269D100BF3648806940F40E
:101C70008040344988610846806900F480400190C2
:101C800000BF00BF00BF0846806940F004008861C3
:101C90000846806900F00400019000BF00BF4815AD
:101CA0000290022003900320059002A92648FEF727
:101CB000E5FC4FF48060029000200390049002A99C
:101CC0002148FEF7DBFC21482149086000204860DC
:101CD00000211F4881608021C160002101614161B4
:101CE0008161C161FEF782FC08B1FEF72AFB00BFEB
:101CF0001748E063446200BF14481438154908606F
:101D0000102048600021134881608021C1600021BB
:101D1000016141618161C161FEF768FC08B1FEF7B4
:101D200010FB00BF0B48A063446200BF00221146B5
:101D30002520FEF7F5FF2520FEF7E2FF06B010BDD7
:101D400000380140001002400008014058000240E5
:101D50009C010020E001002070472DE9F84F044667
:101D60000E46174699464FF0000A94F84100202885
:101D700050D106B117B90120BDE8F88F002060648A
:101D8000212084F84100FEF717FE8246A784E784ED
:101D9000A068B0F5805F04D1206910B90025B04675
:101DA00002E035464FF000081EE053460022802135
:101DB0002046CDF8009000F08DFC20B1202084F862
:101DC00041000320D8E745B9B8F80000C0F3080087
:101DD0002168486008F1020803E02878216848601B
:101DE0006D1CE08C401EE084E08C0028DDD1534661
:101DF000002240212046CDF8009000F06BFC20B17D
:101E0000202084F841000320B6E7202084F8410018
:101E10000020B1E70220AFE7704700BFFEE70000F7
:101E200008B500BF0E48406940F001000C49486108
:101E30000846406900F00100009000BF00BF00228A
:101E400011460E20FEF76CFF0E20FEF759FF002210
:101E500011460F20FEF764FF0F20FEF751FF08BD6B
:101E60000010024000B585B0002001900290039060
:101E7000049000BF2148806940F020001F4988611C
:101E80000846806900F02000009000BF00BF00BF3E
:101E90000846806940F0040088610846806900F0C7
:101EA0000400009000BF00BF00BF0846806940F0FA
:101EB000080088610846806900F00800009000BFB3
:101EC00000BF002228210E48FEF770FD142001906B
:101ED000002002900120039001A90948FEF7CEFBE3
:101EE00028200190012002900020039003200490FC
:101EF00001A90348FEF7C2FB05B000BD0010024077
:101F00000008014010B50B480B4908600B484860B9
:101F1000002109488160C1604FF4804101610021C6
:101F200041618161C1610162FEF74CFD08B1FEF7BC
:101F300008FA10BD0054004070000020A086010087
:101F400000B58DB0002009900A900B900C9007907E
:101F500008901C216846FEF737F9204820490860A0
:101F60000020486000211E4881604FF6FF71C1606B
:101F7000002101618161FFF7D7FA08B1FEF7E1F9AD
:101F80004FF48050099009A91548FFF72DFB08B1BF
:101F9000FEF7D7F91248FFF777FC08B1FEF7D1F941
:101FA00000200790089007A90D48FFF77BFA08B1B9
:101FB000FEF7C7F960200090002001900290049085
:101FC0000C2269460648FFF7DDFB08B1FEF7B9F9B8
:101FD0000348FFF78FFB0DB000BD00000004004078
:101FE000C400002000B58DB0002009900A900B902D
:101FF0000C90079008901C216846FEF7E5F82048F1
:10200000204908600020486000211E4881604FF68A
:10201000FF71C160002101618161FFF785FA08B19C
:10202000FEF78FF94FF48050099009A91548FFF782
:10203000DBFA08B1FEF785F91248FFF725FC08B175
:10204000FEF77FF900200790089007A90D48FFF7D9
:1020500029FA08B1FEF775F9602000900020019080
:1020600002900490002269460648FFF78BFB08B1F6
:10207000FEF767F90348FFF73DFB0DB000BD000018
:10208000000800400C01002010B50B480B49086007
:102090004FF4E1304860002108488160C16001616F
:1020A0000C21416100218161C161FFF795FD08B1FB
:1020B000FEF747F910BD0000003801405401002030
:1020C00000BFFEE700BFFEE77047000008B5084903
:1020D0000968C9084FF47A72B1FBF2F141430091EB
:1020E00000BF00BF00994A1E00920029F9D108BD27
:1020F00010000020704710B5FEF792FD10BD00B52E
:102100008FB0282105A8FEF75FF814216846FEF776
:102110005BF8012005900004069000200790012044
:10212000099002200C90C1030D914FF4E0110E9123
:1021300005A8FEF76BFF08B1FEF703F90F2000902A
:1021400002200190002002904FF480600390002054
:10215000049002216846FEF735FE08B1FEF7F1F85B
:102160000FB000BD7047000010B502681C4B9842CC
:1021700008D0B0F1804F05D01A4B984202D01A4BCC
:10218000984203D122F070024B681A43144B9842D4
:1021900008D0B0F1804F05D0124B984202D0124BBC
:1021A000984203D122F44072CB681A4322F0800394
:1021B0004C6943EA040202608B68C3620B68836265
:1021C000074B984201D10B69036301234361036903
:1021D00003F001031BB1036923F00103036110BD88
:1021E000002C0140000400400008004030B50C46BF
:1021F000816821F47F4142EA032525432943816018
:1022000030BD0A46816821F0700142F0070319438E
:102210008160704730B5026A056A25F001050562E4
:102220004368846924F0700424F003040D682C438F
:1022300022F002028D682A430D4DA84206D100BF4C
:1022400022F00802CD682A4322F00402084DA84279
:1022500007D123F4807323F400734D692B438D69F8
:102260002B43436084614D684563026230BD0000CA
:10227000002C014030B5026A056A25F010050562A0
:102280004368846924F4E04424F440740D6844EA0B
:10229000052422F020028D6842EA05120E4DA84264
:1022A00007D100BF22F08002CD6842EA051222F079
:1022B0004002094DA84209D123F4806323F400634E
:1022C0004D6943EA85038D6943EA85034360846170
:1022D0004D688563026230BD002C014030B5026A52
:1022E000056A25F4807505624368C46924F07004AA
:1022F00024F003040D682C4322F400728D6842EA36
:1023000005220F4DA84207D100BF22F40062CD681C
:1023100042EA052222F48062094DA84209D123F441
:10232000805323F400534D6943EA05138D6943EA52
:1023300005134360C4614D68C563026230BD00008F
:10234000002C014030B5036A056A25F4805505620A
:102350004468C26922F4E04222F440720D6842EA05
:10236000052223F400538D6843EA0533064DA84245
:1023700004D124F480444D6944EA85144460C26168
:102380004D680564036230BD002C014030B50B463A
:102390001446026A056A25F001050562816921F08B
:1023A000F00141EA041122F00A021A43816102623B
:1023B00030BD30B50B461446026A056A25F010059B
:1023C0000562816921F4704141EA043122F0A002E2
:1023D00042EA03128161026230BD70B505466C6A43
:1023E0000020E085E0842046FFF783FA70BD00BF3F
:1023F00000BF02680C3252E8002F22F4907102688C
:102400000C3242E80013002BF3D100BF00BF00BF25
:102410000268143252E8002F22F0010102681432DF
:1024200042E80013002BF3D100BF016B01290ED14C
:1024300000BF00BF02680C3252E8002F22F01001EA
:1024400002680C3242E80013002BF3D100BF2021B8
:1024500080F8421000210163704710B504462068DF
:10246000C06820F040002168C860202084F8410046
:102470002046FFF7D1FC002010BDF8B5044694F8C3
:102480004200222875D1A068B0F5805F0CD1206988
:1024900050B90025A66A20684068C0F30800308063
:1024A000A06A801CA06215E0A56A0026A068B0F5AD
:1024B000805F03D0A06828B9206918B920684068F7
:1024C000287004E02068406800F07F002870A06A4F
:1024D000401CA062E08D401E80B2E085002846D1FD
:1024E0002068C06820F020002168C8602068C068AB
:1024F00020F480702168C8602068406920F00100E5
:1025000021684861202084F8420000206063206B2D
:10251000012826D10020206300BF00BF21680C31B4
:1025200051E8001F21F0100021680C3141E8000241
:10253000002AF3D100BF2068006800F010001028C6
:102540000AD100BF00200090206800680090206839
:102550004068009000BF00BFA18D2046FFF7C8F97A
:1025600002E02046FFF7F8FB0020F8BD01E0002064
:10257000FBE70220F9E7000070B50446216809690D
:1025800021F44051E2681143226811612269A16877
:102590001143626941EA02052168C96841F20C628F
:1025A000914329432268D1602168496921F440712F
:1025B000A2691143226851612D4A2168914202D1DA
:1025C000FEF7DCFC01E0FEF7C9FC00EBC00101EB0B
:1025D000001162689200B1FBF2F100EBC00202EB65
:1025E000001263689B00B2FBF3F26423B2FBF3F2C8
:1025F00002EBC20303EB0212A1EB8201322202EBD7
:1026000001116422B1FBF2F101F0F00100EBC00214
:1026100002EB001263689B00B2FBF3F26423B2FB8F
:10262000F3F201EB021200EBC00101EB0011636851
:102630009B00B1FBF3F100EBC00303EB00136668F2
:10264000B600B3FBF6F36426B3FBF6F303EBC30665
:1026500006EB0313A1EB8301322303EB0111642387
:10266000B1FBF3F101F00F0111442268916070BDDC
:1026700000380140014691F84100212828D188689E
:10268000B0F5805F0BD1086948B90A6A1088C0F3B9
:1026900008000B685860086A801C086205E00B6A35
:1026A000581C086218780B685860C88C401E80B2AD
:1026B000C88458B90868C06820F080000B68D860EA
:1026C0000868C06840F040000B68D8600020704780
:1026D0000220FCE72DE9F84304460D4617469846CC
:1026E000089E31E0701C70B3FEF766F9A0EB08009D
:1026F000B04200D816B90320BDE8F8832068C0684E
:1027000000F00400F8B1802D1ED0402D1CD02068B0
:102710000068C0F3C000B0B100BF00200090206886
:102720000068009020684068009000BF00BF20460D
:10273000FFF75DFE0820606400BF002084F84000C1
:1027400000BF0120D8E7FFE7206800682840A842C2
:1027500001D1012000E00020B842C3D00020CBE727
:1027600010B50248FFF7C6F810BD00005401002064
:1027700000BFFEE702480068C0F302207047000077
:102780000CED00E010B5002804DB0A07130E054A23
:10279000135406E00A07140E034A00F00F031B1F30
:1027A000D45410BD00E400E018ED00E010B586B090
:1027B000044600BF1048806940F004000E4988615B
:1027C0000846806900F00400019000BF00BF0020AF
:1027D0000290039004900590084830F8140002908D
:1027E0000020039001200490054951F8240002A91B
:1027F000FDF744FF06B010BD001002406C00002041
:102800006400002010B586B0044600BF10488069FF
:1028100040F004000E4988610846806900F0040019
:10282000019000BF00BF002002900390049005902B
:10283000084830F81400029001200390032005900E
:10284000054951F8240002A9FDF718FF06B010BD94
:10285000001002406C0000206400002000B585B02C
:1028600000BF1948806940F0040017498861084694
:10287000806900F00400009000BF00BF00200190BC
:102880000290039004900820019001200290032000
:10289000049001A90D48FDF7F1FE2020019001A947
:1028A0000A48FDF7EBFE04200190002002900390FF
:1028B00001A90648FDF7E2FE1020019001A9034896
:1028C000FDF7DCFE05B000BD00100240000801402D
:1028D00070B5044600252046FFF794FF364A32F8CB
:1028E0001410364A52F824000122FEF75FF8012046
:1028F000FDF7E0FC324A32F81410324A52F8240054
:102900000022FEF753F82046FFF750FF00BF2A4A87
:1029100032F81410294A52F82400FEF73FF8012833
:10292000F5D00120FDF7C6FC002626E0244A32F847
:102930001410244A52F824000122FEF737F801202F
:10294000FDF7B8FC1E4A32F814101E4A52F8240053
:102950000022FEF72BF8184A32F81410174A52F8E2
:102960002400FEF71BF808B96D0002E06D0045F089
:1029700001050120FDF79EFC761C182ED6DB104ABF
:1029800032F814100F4A52F824000122FEF70EF814
:1029900085F400050120FDF78DFC094A32F814107A
:1029A000084A52F824000022FEF700F80120FDF743
:1029B00081FC284670BD00006C00002064000020EF
:1029C00060000020580000201CB5FEF735F9FFF725
:1029D00096FBFFF747FAFFF723FAFFF793FAFFF7A3
:1029E000AFFAFFF7FFFAFFF74FFB4820FDF774FC43
:1029F000FFF734FF0020009001902DE00020FFF74A
:102A000067FF1649086000208DF800000DF10101F4
:102A10001248006800F026F8642305226946104831
:102A2000FFF79BF96420FDF715FE0120FFF750FF2B
:102A30000A49086001208DF800000DF101010748E6
:102A4000006800F00FF86423052269460448FFF788
:102A500084F96420FDF7FEFDD0E7000000000020AF
:102A6000540100200870020A4A70020C8A70020E9B
:102A7000CA70704702030405060708090A0B0C0D0B
:102A80000E0F101001020000000000000000010203
:102A90000304060708090000000001020304000007
:102AA000C02A000800000020700000002801000873
:102AB000302B00087000002018420000440100087C
:102AC00000000000000000001000000001000000F5
:102AD00000127A000000000000000000000000006A
:102AE00000000000000000000000000000000000E6
:102AF00000000000000000000000000000000000D6
:102B000000000000000000000000000000000000C5
:102B10000000000000000000000801400008014023
:102B200008002000000801400008014004001000D7
:04000005080000ED02
:00000001FF
