:020000040800F2
:10000000C845002089010008C52700083B240008D6
:10001000C12700088F020008B93100080000000065
:10002000000000000000000000000000D5290008CA
:10003000D503000800000000C9270008192A00089D
:10004000A3010008A3010008A3010008A301000800
:10005000A3010008A3010008A3010008A3010008F0
:10006000A3010008A3010008A301000895020008ED
:10007000A3010008A5020008B5020008C502000897
:10008000A3010008A3010008A3010008A3010008C0
:10009000A3010008A3010008A3010008A3010008B0
:1000A000A3010008A3010008A3010008A3010008A0
:1000B000A3010008A3010008A3010008A301000890
:1000C000A3010008A3010008A3010008A301000880
:1000D000A3010008A9310008A3010008A30100083A
:1000E000A3010008A3010008A301000800F002F822
:1000F00000F03AF80AA090E8000C82448344AAF188
:100100000107DA4501D100F02FF8AFF2090EBAE885
:100110000F0013F0010F18BFFB1A43F0010318473B
:1001200098340000B8340000103A24BF78C878C171
:10013000FAD8520724BF30C830C144BF04680C60ED
:10014000704700000023002400250026103A28BF35
:1001500078C1FBD8520728BF30C148BF0B60704739
:100160001FB51FBD10B510BD00F058F81146FFF7C0
:10017000F7FF03F069F900F076F803B4FFF7F2FF38
:1001800003BC00F07DF8000009488047094800479B
:10019000FEE7FEE7FEE7FEE7FEE7FEE7FEE7FEE737
:1001A000FEE7FEE704480549054A064B7047000094
:1001B000872A0008ED000008C8050020C845002077
:1001C000C8250020C82500204FF0000200B51346C6
:1001D00094469646203922BFA0E80C50A0E80C5067
:1001E000B1F12001BFF4F7AF090728BFA0E80C5018
:1001F00048BF0CC05DF804EB890028BF40F8042B11
:1002000008BF704748BF20F8022B11F0804F18BF7D
:1002100000F8012B7047704770477047754600F033
:100220002BF8AE4605006946534620F00700854688
:1002300018B020B5FFF7B6FFBDE820404FF000062C
:100240004FF000074FF000084FF0000B21F00701BE
:10025000AC46ACE8C009ACE8C009ACE8C009ACE801
:10026000C0098D46704710B50446AFF300802046A4
:10027000BDE81040FFF781BF0048704764050020CB
:1002800001491820ABBEFEE726000200704700BF00
:10029000FEE7000010B5024800F022FA10BD000091
:1002A000A401002010B5024800F01AFA10BD0000A9
:1002B0006001002010B5024800F012FA10BD0000E5
:1002C000BC02002010B5024800F00AFA10BD000080
:1002D0007802002030B590F840500124AC40C56B46
:1002E0006C60046863604468102C04D10468A260E8
:1002F0000468E16003E00468A1600468E26030BD66
:1003000010B504464FF47A7104FB01F000F002F8D6
:1003100010BD0000064B5968064B1B6800FB03F23A
:1003200000BF034B5B685B1A9342FAD3704700002F
:10033000001000E0200000201249096841F080719F
:10034000104A11600021104A51601146096841F0BD
:10035000010111600D4941430D4A116011460968C0
:100360004FF47A72B1FBF2F10A4A11600849096848
:10037000064AB1FBF2F1084A11600021074A1160F8
:1003800070470000FCED00E0001000E040420F006C
:10039000180000201C000020200000202400002065
:1003A00070B505460C4600BFA3B22A460021074897
:1003B00001F06CFC0028F7D100BFA3B22A460C2143
:1003C000034801F063FC0028F7D170BD180100203C
:1003D000D0000020704772B600BFFEE770B504463B
:1003E0000CB9012070BD94F8200010B9204600F02F
:1003F000AFF82068006840F001002168086000F054
:100400005DFC05460DE000F059FC401B0A2808D9A8
:10041000606A40F400306062052084F8200001200A
:10042000E0E72068406800F001000028EBD0206879
:10043000006820F002002168086000F03FFC0546DB
:100440000DE000F03BFC401B0A2808D9606A40F42C
:1004500000306062052084F820000120C2E7206897
:10046000406800F002000028EBD1207E012806D170
:100470002068006840F080002168086005E020687E
:10048000006820F0800021680860607E012806D1A5
:100490002068006840F040002168086005E020689E
:1004A000006820F0400021680860A07E012806D185
:1004B0002068006840F020002168086005E020689E
:1004C000006820F0200021680860E07E012806D145
:1004D0002068006820F010002168086005E02068AE
:1004E000006840F0100021680860207F012806D1D4
:1004F0002068006840F008002168086005E0206876
:10050000006820F0080021680860607F012806D19B
:100510002068006840F004002168086005E0206859
:10052000006820F0040021680860D4E90201084353
:1005300021690843616908436168491E08432168CD
:10054000C86100206062012084F82000002049E793
:1005500010B586B0044600200290039004900590E8
:100560001A49206888422ED100BF1948C06940F05E
:1005700000701749C8610846C06900F0007001901A
:1005800000BF00BF00BF0846806940F004008861DA
:100590000846806900F00400019000BF00BFC81445
:1005A000029000200390049002A90A4800F0E8F9A4
:1005B0004FF480500290022003900320059002A97E
:1005C000044800F0DDF906B010BD000000640040F2
:1005D00000100240000801400146002291F821006D
:1005E000022808D00420886300BF002081F8200082
:1005F00000BF012070470868006820F00E000B68FB
:1006000018600868006820F001000B68186091F815
:10061000403001209840CB6B5860012081F82100C8
:1006200000BF002081F8200000BF1046E2E7000074
:1006300070B50446002594F82100022803D0042058
:10064000A063012548E02068006820F00E002168C2
:1006500008602068006820F00100216808601F49D8
:100660002068884201D1012026E01C49143120680D
:10067000884201D110201FE01849283120688842A3
:1006800001D1801518E015493C312068884201D11C
:10069000801411E0114950312068884202D14FF492
:1006A000803009E00D4964312068884202D14FF45E
:1006B000801001E04FF0807008490839486001203F
:1006C00084F8210000BF002084F8200000BF606B88
:1006D00010B12046616B8847284670BD0800024073
:1006E00070B50446E06B05682068066894F8401011
:1006F000042088402840002846D006F00400002846
:1007000042D02068006800F0200028B92068006806
:1007100020F004002168086057492068884201D110
:10072000042027E0544914312068884201D1402038
:1007300020E0514928312068884201D1001519E094
:100740004D493C312068884202D14FF4804011E08D
:10075000494950312068884202D14FF4802009E095
:10076000454964312068884202D14FF4800001E09D
:100770004FF08060404908394860E06A00287AD02C
:100780002046E16A884776E094F8401002208840CD
:100790002840A0B306F0020088B32068006800F08B
:1007A000200040B92068006820F00A002168086035
:1007B000012084F8210030492068884201D10220BC
:1007C00028E02D4914312068884201D1202021E001
:1007D000294928312068884201D140151AE026496C
:1007E0003C312068884202D14FF4005012E0224987
:1007F00050312068884203D14FF400300AE017E0FE
:100800001D4964312068884202D14FF4001001E094
:100810004FF0007018490839486000BF002084F884
:10082000200000BFA06A30B32046A16A884722E0BA
:1008300094F84010082088402840E0B106F00800F5
:10084000C8B12068006820F00E002168086094F8A4
:10085000401001208840E16B48600120A06384F8CB
:10086000210000BF002084F8200000BF206B10B1E1
:100870002046216B884770BD0800024001460022D7
:1008800009B901207047164B0868C01A1423B0FB41
:10089000F3F08000086412480838C863022081F829
:1008A00021000868026843F6F0708243D1E9010331
:1008B0001843CB6818430B6918434B6918438B697D
:1008C0001843CB691843024308680260002088631C
:1008D000012081F82100002081F8200000BFD1E72D
:1008E000080002402DE9F04104460D4616461F4619
:1008F0004FF0000800BF94F82000012802D1022028
:10090000BDE8F081012084F8200000BF94F82100A8
:1009100001282CD1022084F821000020A063206847
:10092000006820F00100216808603B4632462946F5
:100930002046FFF7CFFCE06A30B12068006840F045
:100940000E00216808600BE02068006820F00400B9
:10095000216808602068006840F00A00216808608B
:100960002068006840F001002168086006E000BFD0
:10097000002084F8200000BF4FF002084046BFE787
:100980002DE9F8470346002294466EE14FF0010836
:1009900008FA02F4D1F8008008EA0400A0427DD1F0
:1009A000DFF8DCA2D1F80480A8EB0A09D0453AD0E0
:1009B00014DCB8F1030F50D009DCB8F1000F31D0CE
:1009C000B8F1010F1CD0B8F1020F49D120E0B8F105
:1009D000110F18D0B8F1120F42D11EE0B9F5881FDF
:1009E00025D006DCB9F5803F20D0B9F5801F37D17E
:1009F0001AE0B9F5001F18D0B9F5041F30D117E07F
:100A0000D1F80CC02DE0D1F80C8008F1040C28E0DE
:100A1000D1F80C8008F1080C23E0D1F80C8008F123
:100A20000C0C1EE000BF00BF00BF00BF00BF00BF36
:100A3000D1F80880B8F1000F02D14FF0040C0BE0A0
:100A4000D1F80880B8F1010F03D14FF0080C1C61F8
:100A500002E04FF0080C5C6103E04FF0000C00E096
:100A600000BF00BFFF2801D8984601E003F1040849
:100A70004646FF2802D84FEA820803E0A2F10808A0
:100A80004FEA88084746D6F800804FF00F0909FA68
:100A900007F928EA09080CFA07F900E088E048EAB3
:100AA0000908C6F80080D1F8048008F08058B8F131
:100AB000805F7DD100BFDFF8CC81D8F8188048F086
:100AC0000108DFF8C091C9F81880C846D8F8188026
:100AD00008F00108CDF8008000BF00BF4FEAB93828
:100AE0004FEA920958F829504FEA82784FEA18796C
:100AF0004FF00F0808FA09F825EA0805DFF88881A1
:100B0000434502D14FF0000816E0DFF880814345ED
:100B100002D14FF001080FE0DFF87481434502D1A4
:100B20004FF0020808E0DFF86C81434502D14FF036
:100B3000030801E04FF004084FEA82794FEA19797F
:100B400008FA09F848EA0505DFF84C814FEA9209EE
:100B500048F82950D1F8048008F48018B8F5801FAF
:100B60000AD1DFF83881D8F8008048EA0008DFF8B9
:100B70002C91C9F8008009E0DFF82081D8F80080C6
:100B800028EA0008DFF81491C9F80080D1F8048041
:100B900008F40018B8F5001F10D1DFF8008108F143
:100BA0000408D8F8008048EA0008DFF8F09000E078
:100BB0005AE009F10409C9F800800DE0DFF8DC8093
:100BC00008F10408D8F8008028EA0008DFF8CC9083
:100BD00009F10409C9F80080D1F8048008F400384C
:100BE000B8F5003F0ED1DFF8B480A8F10408D8F8BA
:100BF000008048EA0008DFF8A490A9F10409C9F8C8
:100C000000800DE0DFF89480A8F10408D8F8008097
:100C100028EA0008DFF88490A9F10409C9F80080E7
:100C2000D1F8048008F48038B8F5803F0ED1DFF8A1
:100C30006C80A8F10808D8F8008048EA0008DFF8BE
:100C40005C90A9F10809C9F800800DE0DFF84C803C
:100C5000A8F10808D8F8008028EA0008DFF83C90DE
:100C6000A9F10809C9F80080521CD1F8008028FABF
:100C700002F8B8F1000F7FF489AEBDE8F8870000F4
:100C8000000011100010024000080140000C01405B
:100C90000010014000140140080001400804014018
:100CA000024693680B400BB1012000E00020704722
:100CB0000AB1016101E00B0403617047014800685B
:100CC000704700000000002070B504460CB90120F8
:100CD00070BD94F83D0028B9002084F83C002046FF
:100CE00000F0DAF8242084F83D002068006820F045
:100CF0000100216808602068006840F40040216815
:100D000008602068006820F400402168086000F056
:100D1000A7FA05465C496068884206D85B48854268
:100D200001D2012007E0002005E05948854201D2A8
:100D3000012000E00020012800D1C9E75548B5FB9B
:100D4000F0F62068406820F03F003043216848609A
:100D50004D496068884201D8701C07E04FF49670D6
:100D600070434FF47A71B0FBF1F0401C2168096ABE
:100D700021F03F01084321680862434960688842C6
:100D800014D8681E61684900B0FBF1F0401CC0F344
:100D90000B00042801D204203DE0681E6168490070
:100DA000B0FBF1F0401CC0F30B0034E0A06838B990
:100DB000681E616801EB4101B0FBF1F0401C0AE0E4
:100DC000681E616801EBC10202EB0111B0FBF1F09A
:100DD000401C40F48040C0F30B0008B901201AE029
:100DE000A06848B9681E616801EB4101B0FBF1F0F1
:100DF000401CC0F30B000CE0681E616801EBC102EF
:100E000002EB0111B0FBF1F0401CC0F30B0040F409
:100E1000804040F400402168C9694CF6FF7291435C
:100E200008432168C861D4E90701084321680968BB
:100E300021F0C001084321680860D4E90310084389
:100E40002168896848F2FF3291430843216888602D
:100E5000D4E9050108432168C96821F0FF0108436E
:100E60002168C8602068006840F0010021680860BF
:100E700000202064202084F83D000020206384F8B6
:100E80003E0000BF24E70000A086010080841E0011
:100E900000093D0040420F0010B586B00446002016
:100EA00002900390049005901A49206888422FD13F
:100EB00000BF1948806940F008001749886108465A
:100EC000806900F00800019000BF00BF4FF440703F
:100ED0000290122003900320059002A90F48FFF70B
:100EE0004FFD00BF0E49486840F0E06040F002004E
:100EF000486000BF00BF0848C06940F400100649C0
:100F0000C8610846C06900F40010019000BF00BF2E
:100F100006B010BD0054004000100240000C01401B
:100F2000000001400348006803490978084401496A
:100F300008607047000000200800002010B5084835
:100F4000006840F0100006490860032000F0A8F88F
:100F50000F2000F007F800F02BF8002010BD000073
:100F60000020024070B504460E4800784FF47A71B4
:100F7000B1FBF0F00C490968B1FBF0F5284600F030
:100F8000F9FB08B1012070BD102C07D200222146C8
:100F9000501E00F047F80548046001E00120F2E728
:100FA0000020F0E7080000200C00002004000020D2
:100FB00008B500BF1148806940F001000F49886101
:100FC0000846806900F00100009000BF00BF00BF2C
:100FD0000846C06940F08050C8610846C06900F00A
:100FE0008050009000BF00BF00BF0549486820F056
:100FF000E06040F00070486000BF08BD0010024093
:101000000000014001460846002809DB00F01F03EC
:1010100001229A4043099B0003F1E023C3F8002119
:1010200000BF70472DE9F05F80460D461646002749
:1010300002F0C4F8074639462A46334601F0070055
:10104000C0F1070ABAF1040F02D94FF0040A01E017
:10105000C0F1070AD14600F1040ABAF1070F02D223
:101060004FF0000A01E0A0F1030AD4464FF0010A54
:101070000AFA09FAAAF1010A0AEA020A0AFA0CFAB9
:101080004FF0010B0BFA0CFBABF1010B0BEA030B5E
:101090004AEA0B042146404602F098F8BDE8F09F6A
:1010A00000BF00F00702064B19684FF6FF03194016
:1010B000044B0B4343EA0221014B196000BF704708
:1010C0000CED00E00000FA0570B504460D460CB9C1
:1010D000012070BD5A48006800F00700A8420ED2F7
:1010E0005748006820F00700284355490860084623
:1010F000006800F00700A84201D00120E9E720784D
:1011000000F0020002281DD1207800F0040004281D
:1011100005D14C48406840F4E0604A494860207876
:1011200000F00800082805D14648406840F46050A7
:10113000444948604348406820F0F000A1680843F3
:1011400040494860207800F0010078B360680128C9
:1011500006D13C48006800F4003090B90120B8E79F
:101160006068022806D13748006800F0007040B976
:101170000120AEE73348006800F0020008B9012002
:10118000A7E73048406820F00300616808432D4914
:101190004860FFF793FD064609E0FFF78FFD801BCF
:1011A00041F28831884202D9032092E707E02548BE
:1011B000406800F00C006168B0EB810FEDD1204871
:1011C000006800F00700A8420ED91D48006820F012
:1011D000070028431A4908600846006800F0070025
:1011E000A84201D0012074E7207800F00400042810
:1011F00007D11448406820F4E060E16808431149D1
:101200004860207800F00800082808D10D484068A0
:1012100020F46050216940EAC1000A49486000F0AA
:101220003FF808494968C1F30311074A515CC840B7
:101230000649086006480068FFF794FE002048E76A
:1012400000200240001002408C3500080C000020F5
:101250000400002001480068704700000C000020D6
:1012600000B5FFF7F7FF04494968C1F30221034ABB
:10127000515CC84000BD0000001002409C350008D1
:1012800000B5FFF7E7FF04494968C1F3C221034AEB
:10129000515CC84000BD0000001002409C350008B1
:1012A00070B500210022002400230020134D69683E
:1012B00001F00C05F5B1042D02D0082D19D101E083
:1012C0000F4819E00F4DC1F38346AB5D01F4803543
:1012D00055B10A4D6D68C5F340450B4E725D084D22
:1012E0005D43B5FBF2F402E0084D03FB05F4204634
:1012F00002E000BF024800BF00BF70BD0010024006
:1013000000127A007A3500088A35000800093D008D
:10131000F8B504460CB90120F8BD207800F00100B2
:10132000002878D0F848406800F00C0004280CD061
:10133000F548406800F00C00082811D1F2484068D8
:1013400000F48030B0F5803F0AD1EF48006800F427
:10135000003000285FD0606800285CD10120DBE706
:1013600000BF6068B0F5803F06D1E748006840F4F0
:101370008030E549086028E0606858B9E2480068B4
:1013800020F48030E04908600846006820F480209E
:1013900008601AE06068B0F5A02F0BD1DA48006849
:1013A00040F48020D84908600846006840F4803046
:1013B00008600AE0D448006820F48030D249086010
:1013C0000846006820F48020086000BF606888B18B
:1013D000FFF774FC054606E0FFF770FC401B64282D
:1013E00001D9032098E7C848006800F400300028BD
:1013F000F2D010E0FFF762FC054606E0FFF75EFC66
:10140000401B642801D9032086E7BF48006800F428
:1014100000300028F2D1207800F00200022857D1D5
:10142000B948406800F00C0050B1B748406800F07F
:101430000C00082818D1B448406800F4803098B9EE
:10144000B148006800F0020020B12069012801D0F5
:10145000012061E7AC48006820F0F800616940EACB
:10146000C100A949086033E02069E8B10120A7491B
:101470000860FFF723FC054606E0FFF71FFC401B52
:10148000022801D9032047E79F48006800F00200C6
:101490000028F2D09C48006820F0F800616940EA1A
:1014A000C1009949086013E0002098490860FFF7DF
:1014B00005FC054606E0FFF701FC401B022801D9A8
:1014C000032029E79048006800F002000028F2D1CC
:1014D000207800F0080008282DD1A069B8B10120BB
:1014E0008B490860FFF7EAFB054606E0FFF7E6FBDD
:1014F000401B022801D903200EE78348406A00F010
:1015000002000028F2D0012001F060F913E0002071
:101510007F490860FFF7D2FB054606E0FFF7CEFBE8
:10152000401B022801D90320F6E67748406A00F004
:1015300002000028F2D1207800F00400042873D1C2
:1015400000277148C06900F0805070B900BF6E4834
:10155000C06940F080506C49C8610846C06900F01D
:101560008050009000BF00BF01276A48006800F467
:101570008070B0B96748006840F4807065490860C1
:10158000FFF79CFB054606E0FFF798FB401B64282D
:1015900001D90320C0E65F48006800F4807000288D
:1015A000F2D000BFE068012806D15748006A40F039
:1015B00001005549086227E0E06858B95248006ABE
:1015C00020F00100504908620846006A20F004003B
:1015D000086219E0E06805280BD14B48006A40F02A
:1015E0000400494908620846006A40F001000862A8
:1015F0000AE04548006A20F00100434908620846B5
:10160000006A20F00400086200BFE068A0B1FFF7A4
:1016100055FB054609E0FFF751FB401B41F28831BD
:10162000884202D9032077E622E03748006A00F0BA
:1016300002000028EFD012E0FFF740FB054608E06B
:10164000FFF73CFB401B41F28831884201D903205F
:1016500062E62D48006A00F002000028F0D1012F58
:1016600005D12948C06920F080502749C86100BFD2
:10167000E069C8B32448406800F00C00082860D036
:10168000E069022848D1002020490866FFF716FBD0
:10169000054606E0FFF712FB401B022801D9032094
:1016A0003AE61948006800F000700028F2D1206A7C
:1016B000B0F5803F07D11448406820F40030A1689D
:1016C000084311494860D4E9080108430E494968B4
:1016D00021F4741108430C49486001200B49086645
:1016E000FFF7ECFA054607E03DE0FFF7E7FA401B9D
:1016F000022801D903200FE60348006800F00070BB
:101700000028F2D02FE0000000100240000042420A
:101710008004424200700040002014490866FFF730
:10172000CDFA054606E0FFF7C9FA401B022801D9A9
:101730000320F1E50E48006800F000700028F2D1A7
:1017400011E0E069012800D1E6E50948466806F4A1
:101750008031206A814204D106F47011606A8142AE
:1017600001D00120D8E50020D6E50000000042426B
:101770000010024070B504462546681EB0F1807F17
:1017800001D301200FE0681E4FF0E02148610F21D6
:101790004FF0FF3001F01AFD00204FF0E02188618A
:1017A00007200861002070BD30B502460B4600BF1F
:1017B00092F83C00012801D1022030BD012082F8BE
:1017C0003C0000BF022082F83D00106844681068A9
:1017D000816824F070041868044310684460104D58
:1017E0001068A8420BD01068B0F1804F07D00D4DA3
:1017F0001068A84203D00C4D1068A84205D121F012
:1018000080015868014310688160012082F83D0022
:1018100000BF002082F83C0000BF00BFCDE7000001
:10182000002C0140000400400008004010B50446B0
:101830000CB9012010BD94F83D0028B9002084F8AF
:101840003C00204600F026F8022084F83D00211DCF
:10185000206801F019F9012084F8460000BF84F8DF
:101860003E0001213F2001554020015541200155F6
:1018700000BF00BF012084F84200432001554420EE
:1018800001554520015500BF012084F83D0000208E
:10189000D0E7000038B504463249206888422FD18D
:1018A00000BF3148C06940F002002F49C8610846B6
:1018B000C06900F00200009000BF00BF2B482C4917
:1018C0000860102048600021294881608021C160A3
:1018D0004900016189004161002181614FF400519B
:1018E000C161FEF7CBFF08B1FEF775FD00BF2049CF
:1018F00021630846446200BF00BF2062446230E0BA
:101900001C49206888422CD100BF1748C06940F0AC
:1019100004001549C8610846C06900F00400009041
:1019200000BF00BF114828381349086010204860E4
:101930000021114881608021C16049000161890056
:101940004161002181614FF40051C161FEF796FFB2
:1019500008B1FEF740FD00BF0749616208464462D6
:1019600000BF38BD000400400010024030000240BB
:101970006001002000080040A40100202DE9F04192
:1019800004460D46002700BF94F83C00012802D110
:101990000220BDE8F081012084F83C0000BF022055
:1019A00084F83D002068866826F0770626F47F4696
:1019B000206886602868502833D00CDC202850D05E
:1019C00004DC00284BD0102851D149E0302849D000
:1019D00040284CD139E060282DD0702807D0B0F5D0
:1019E000805F03D0B0F5005F41D10DE041E0D5E963
:1019F00002136A68206801F01DF92068866846F0C5
:101A000077062068866034E0D5E902136A682068AA
:101A100001F010F92068806840F4804021688860F7
:101A200027E0EA686968206801F0D4F9502120684D
:101A300001F00BF91DE0EA686968206801F0DDF942
:101A40006021206801F001F913E0EA686968206804
:101A500001F0C0F94021206801F0F7F809E000BF6B
:101A600000BF00BF2968206801F0EFF801E00127FE
:101A700000BF00BF012084F83D0000BF002084F8B3
:101A80003C0000BF384684E77047000010B586B0C0
:101A90000446002002900390049005901B492068A2
:101AA000884216D100BF1A48806940F008001849E2
:101AB00088610846806900F00800019000BF00BFFF
:101AC000022002900390059002A91248FEF758FFE9
:101AD0001AE011492068884216D100BF0C4880697D
:101AE00040F008000A4988610846806900F0080053
:101AF000019000BF00BF402002900220039005909B
:101B000002A90448FEF73CFF06B010BD00040040E7
:101B100000100240000C0140000800402DE9F04197
:101B200004460D461646002700BF94F83C000128E5
:101B300002D10220BDE8F081012084F83C0000BF02
:101B400036B1042E1BD0082E31D00C2E5ED145E0CC
:101B50002946206801F082F82068806940F008007A
:101B6000216888612068806920F00400216888610C
:101B700020688069296908432168886148E029460E
:101B8000206801F09BF82068806940F400602168BB
:101B900088612068806920F48060216888612068FD
:101BA0008069296940EA01202168886130E029467E
:101BB000206801F0B7F82068C06940F0080021688B
:101BC000C8612068C06920F004002168C8612068ED
:101BD000C069296908432168C86119E0294620685D
:101BE00001F0D4F82068C06940F400602168C86141
:101BF0002068C06920F480602168C8612068C069DD
:101C0000296940EA01202168C86101E0012700BF7D
:101C100000BF00BF002084F83C0000BF384689E7C1
:101C200010B504460CB9012010BD94F83D0028B948
:101C3000002084F83C00204600F025F8022084F8BB
:101C40003D00211D206800F01FFF012084F84600A0
:101C500000BF84F83E0001213F200155402001557E
:101C60004120015500BF00BF012084F842004320FD
:101C70000155442001554520015500BF012084F83D
:101C80003D000020D0E77047704770472DE9F047CE
:101C900004460D4616461F464FF0000815B994F845
:101CA0003E000BE0042D02D13F20005D06E0082D30
:101CB00002D14020005D01E04120005D022801D1F9
:101CC000BDE8F08715B994F83E000BE0042D02D171
:101CD0003F20005D06E0082D02D14020005D01E0BC
:101CE0004120005D012818D106B10FB90120E7E7B6
:101CF0001DB9022084F83E0011E0042D03D1022119
:101D00003F2001550BE0082D03D102214020015551
:101D100005E002214120015501E00120D0E735B165
:101D2000042D1FD0082D38D00C2D6CD150E0564911
:101D3000606A81625549606AC1625549606A01639F
:101D4000216801F134023B463146606AFEF7CAFD64
:101D500008B10120B4E72068C06840F40070216831
:101D6000C86053E04849A06A81624849A06AC162DC
:101D70004749A06A0163216801F138023B463146B8
:101D8000A06AFEF7AFFD08B1012099E72068C0689E
:101D900040F480602168C86038E03B49E06A8162B5
:101DA0003A49E06AC1623A49E06A0163216801F197
:101DB0003C023B463146E06AFEF794FD08B1012043
:101DC0007EE72068C06840F400602168C8601DE0BC
:101DD0002D49206B81622D49206BC1622C49206BFB
:101DE0000163216801F140023B463146206BFEF75A
:101DF00079FD08B1012063E72068C06840F4805095
:101E00002168C86002E04FF0010800BF00BFB8F1D0
:101E1000000F36D101222946206800F077FE1D49C7
:101E20002068884201D1012000E0002028B120680C
:101E3000406C40F40040216848641649206888429C
:101E40000BD02068B0F1804F07D01349206888423A
:101E500003D01249206888420DD12068806800F0C4
:101E60000709B9F1060F0CD02068006840F00100A6
:101E70002168086005E02068006840F001002168E2
:101E8000086040461CE700002F2B0008972B000835
:101E9000D72B0008002C014000040040000800403F
:101EA000704770472DE9F84F0446206805682068A0
:101EB000C668206847694FF00009CA4605F00F0957
:101EC000B9F1000F0AD105F0200038B106F020006A
:101ED00020B1204600F0F5FFBDE8F88FB9F1000F02
:101EE0007BD007F0010018B906F49070002874D078
:101EF00005F0010030B106F4807018B1606C40F05C
:101F00000100606405F0040030B107F0010018B171
:101F1000606C40F00200606405F0020030B107F030
:101F2000010018B1606C40F00400606405F0080026
:101F300048B106F0200010B907F0010018B1606C3C
:101F400040F008006064606C002845D005F0200077
:101F500028B106F0200010B1204600F0B2FF206842
:101F60004069C0F3801A606C00F0080010B9BAF143
:101F7000000F2CD0204600F05EFF2068406900F082
:101F8000400000B300BF00BF2168143151E8001FBA
:101F900021F040002168143141E80002002AF3D109
:101FA00000BFE06B50B17748E16B4863E06BFEF730
:101FB0003FFB88B1E06B416B88470DE02046FFF79F
:101FC00070FF09E009E02046FFF76BFF04E02046C0
:101FD000FFF767FF002060647EE7206B012877D160
:101FE00005F01000002873D006F010000028FAD089
:101FF00000BF0020009020680068009020684068C2
:10200000009000BF00BF2068406900F04000002839
:102010005FD0E06B006840681FFA80F8B8F1000FED
:1020200055D0A08D404552DDA4F82E80E06B80692C
:10203000202843D000BF00BF21680C3151E8001FA9
:1020400021F4807021680C3141E80002002AF3D1AC
:1020500000BF00BF00BF2168143151E8001F21F00C
:1020600001002168143141E80002002AF3D100BFC9
:1020700000BF00BF2168143151E8001F21F040006B
:102080002168143141E80002002AF3D100BF20206A
:1020900084F842000020206300BF00BF21680C319B
:1020A00051E8001F21F0100021680C3141E80002C6
:1020B000002AF3D100BFE06BFEF78EFA02206063C6
:1020C000A08DE28D801A81B22046FFF7E9FE03E77A
:1020D00042E0A08DE18D401A1FFA80F8E08DD0B368
:1020E000B8F1000F37D000BF00BF21680C3151E8B4
:1020F000001F21F4907021680C3141E80002002A91
:10210000F3D100BF00BF00BF2168143151E8001FA8
:1021100021F001002168143141E80002002AF3D1C6
:1021200000BF202084F842000020206300BF00BFD1
:1021300021680C3151E8001F21F0100021680C319A
:1021400041E80002002AF3D100BF0220606341464B
:102150002046FFF7A5FEBFE605F0800030B106F08F
:10216000800018B1204600F0A9FFB5E605F0400058
:1021700030B106F0400018B1204600F092FEABE608
:1021800000BFA9E6232E000810B504460CB90120B3
:1021900010BDA06900B100E000BF94F8410028B96B
:1021A000002084F84000204600F02AF8242084F81B
:1021B00041002068C06820F400502168C8602046B3
:1021C00000F0FEFE2068006920F49040216808615C
:1021D0002068406920F02A00216848612068C068B2
:1021E00040F400502168C86000206064202084F81A
:1021F000410084F842000020606300BFC8E700008F
:1022000010B586B00446002002900390049005901B
:102210005149206888426AD100BF5048806940F423
:1022200080404E4988610846806900F480400190F2
:1022300000BF00BF00BF0846806940F0040088610D
:102240000846806900F00400019000BF00BF4815F7
:102250000290022003900320059002A94048FEF757
:102260008FFB4FF48060029000200390049002A93D
:102270003B48FEF785FB3B483B490860002048602F
:102280000021394881608021C160002101614161E4
:102290008161C161FEF7F2FA08B1FEF79CF800BF58
:1022A0003148E063446200BF2E4814382F4908606B
:1022B0001020486000212D4881608021C1600021EC
:1022C000016141618161C161FEF7D8FA08B1FEF791
:1022D00082F800BF2548A063446200BF0022114677
:1022E0002520FEF79FFE2520FEF78CFE32E02049D8
:1022F000206888422ED100BF1848C06940F4802071
:102300001649C8610846C06900F48020019000BFEA
:1023100000BF00BF0846806940F008008861084699
:10232000806900F00800019000BF00BF081502900E
:10233000022003900320059002A90E48FEF720FB1F
:102340004FF40060029000200390049002A9094815
:10235000FEF716FB06B010BD003801400010024029
:10236000000801405800024078020020BC02002012
:1023700000480040000C014070472DE9F84F04462A
:102380000E46174699464FF0000A94F8410020285F
:1023900050D106B117B90120BDE8F88F0020606464
:1023A000212084F84100FEF789FC8246A784E78457
:1023B000A068B0F5805F04D1206910B90025B0464F
:1023C00002E035464FF000081EE05346002280210F
:1023D0002046CDF8009000F0A1FE20B1202084F826
:1023E00041000320D8E745B9B8F80000C0F3080061
:1023F0002168486008F1020803E0287821684860F5
:102400006D1CE08C401EE084E08C0028DDD153463A
:10241000002240212046CDF8009000F07FFE20B140
:10242000202084F841000320B6E7202084F84100F2
:102430000020B1E70220AFE7704700BFFEE70000D1
:1024400010B50E480E4908600220486000210C4873
:102450008160C1604FF4602101614FF480114161DE
:102460000021017641768176C17601774177FDF7CB
:10247000B5FF08B1FDF7AFFF10BD000000640040DC
:102480005400002008B500BF1648406940F0010024
:10249000144948610846406900F00100009000BFFF
:1024A00000BF002211460B20FEF7BCFD0B20FEF7FB
:1024B000A9FD002211460D20FEF7B4FD0D20FEF708
:1024C000A1FD002211460E20FEF7ACFD0E20FEF706
:1024D00099FD002211460F20FEF7A4FD0F20FEF704
:1024E00091FD08BD0010024000B585B000200190AC
:1024F00002900390049000BF3148806940F02000B2
:102500002F4988610846806900F02000009000BFD4
:1025100000BF00BF0846806940F00400886108469B
:10252000806900F00400009000BF00BF00BF0846B3
:10253000806940F0080088610846806900F0080062
:10254000009000BF00BF002228211E48FEF7B0FB0C
:10255000012208211C48FEF7ABFB002220211A486B
:10256000FEF7A6FB48F214000190002002900390B1
:1025700001A91448FEF704FA2820019001200290D6
:10258000002003900220049001A90E48FEF7F8F9FC
:102590002820019001200290002003900220049046
:1025A00001A90948FEF7ECF91020019000200290E3
:1025B000039001A90448FEF7E3F905B000BD00004F
:1025C0000010024000080140000C014010B50B480B
:1025D0000B4908600B484860002109488160C160D0
:1025E0004FF480410161002141618161C16101625B
:1025F000FEF76AFB08B1FDF7EEFE10BD0054004087
:102600007C000020A086010000B58DB0002009905C
:102610000A900B900C90079008901C216846FDF7DB
:10262000D3FD2048204908600020486000211E4852
:1026300081604FF6FF71C160002101618161FFF788
:10264000F5F808B1FDF7C7FE4FF48050099009A9CD
:102650001548FFF793F908B1FDF7BDFE1248FFF7E3
:10266000DFFA08B1FDF7B7FE00200790089007A930
:102670000D48FFF799F808B1FDF7ADFE6020009016
:1026800000200190029004900C2269460648FFF752
:1026900045FA08B1FDF79FFE0348FFF7F7F90DB0C3
:1026A00000BD000000040040D000002000B58DB047
:1026B000002009900A900B900C90079008901C2124
:1026C0006846FDF781FD20482049086000204860E9
:1026D00000211E4881604FF6FF71C1600021016139
:1026E0008161FFF7A3F808B1FDF775FE4FF4805044
:1026F000099009A91548FFF741F908B1FDF76BFEEC
:102700001248FFF78DFA08B1FDF765FE002007902B
:10271000089007A90D48FFF747F808B1FDF75BFEE1
:1027200060200090002001900290049000226946F1
:102730000648FFF7F3F908B1FDF74DFE0348FFF730
:10274000A5F90DB000BD00000008004018010020F0
:1027500010B50B480B4908604FF4E1304860002188
:1027600008488160C16001610C21416100218161E3
:10277000C161FFF709FD08B1FDF72DFE10BD000096
:1027800000380140E801002010B50B480B490860F3
:102790004FF4E1304860002108488160C160016168
:1027A0000C21416100218161C161FFF7EDFC08B19D
:1027B000FDF711FE10BD000000480040300200206F
:1027C00000BFFEE700BFFEE77047000008B50849FC
:1027D0000968C9084FF47A72B1FBF2F141430091E4
:1027E00000BF00BF00994A1E00920029F9D108BD20
:1027F0000C00002010B500F019F84FF47A70FDF7C6
:102800007FFD10BD10B500F031F800240BE000F0A2
:102810000DF82320FDF774FD00F028F82320FDF7C4
:102820006FFD601CC4B2022CF1DB10BD10B500249A
:1028300007E000231A461946204600F0CDF8601C38
:10284000C4B2092CF5DB002005E00021064A22F87D
:102850001010411CC8B25A28F7DB4FF49971024896
:10286000FDF79EFD10BD0000000300202DE9F041A2
:1028700000246EE04049097809B9404918E03E4912
:102880000978012901D1002112E03B490978022988
:1028900001D13B490CE038490978032901D10021D5
:1028A00006E035490978042901D1344900E033496B
:1028B000084600F0FDFDC5B22F49097809B900218D
:1028C00019E02D490978012901D1002113E02A4995
:1028D0000978022901D12B490DE0274909780329FC
:1028E00002D14FF0844106E023490978042901D13F
:1028F000002100E02149084600F0DAFDC6B21E4979
:10290000097809B9002118E01B490978012901D18A
:102910001A4912E018490978022901D100210CE076
:1029200015490978032901D1174906E012490978A8
:10293000042901D1114900E01049084600F0B8FD12
:10294000C7B22B4632463946204600F045F8601C97
:10295000C4B2092C8EDB002005E000210B4A22F8CE
:102960001010411CC8B25A28F7DB4FF49971074880
:10297000FDF716FDBDE8F0815000002000007F4308
:10298000000086420000C0420000FE42000300201A
:1029900070B504460D48007810B1FFF767FF01E0FD
:1029A000FFF744FF2546012D08D10948007828B9D2
:1029B000FFF728FF01200649087003E015B9002041
:1029C000034908700C20FDF79BFC70BD51000020EE
:1029D0005200002070470000F0B50446092C17DAB9
:1029E000002013E0150445EA01251D43854005F448
:1029F00000050DB12D2600E0172604EB4407054D18
:102A000005EB071525F81060451CE8B21828E9DB2E
:102A1000F0BD0000B403002010B5FEF783FA10BD2E
:102A200000B58FB0282105A8FDF7CEFB142168461C
:102A3000FDF7CAFB012005900004069000200790D6
:102A40000120099002200C90C1030D914FF4E01178
:102A50000E9105A8FEF75CFC08B1FDF7BCFC0F2049
:102A6000009002200190002002904FF480600390BB
:102A70000020049002216846FEF726FB08B1FDF70E
:102A8000AAFC0FB000BD704710B502681C4B9842FD
:102A900008D0B0F1804F05D01A4B984202D01A4BA3
:102AA000984203D122F070024B681A43144B9842AB
:102AB00008D0B0F1804F05D0124B984202D0124B93
:102AC000984203D122F44072CB681A4322F080036B
:102AD0004C6943EA040202608B68C3620B6883623C
:102AE000074B984201D10B690363012343610369DA
:102AF00003F001031BB1036923F00103036110BD5F
:102B0000002C0140000400400008004030B501F0F6
:102B10001F05012404FA05F3046A9C430462046A55
:102B200001F01F0502FA05F52C43046230BD70B5B3
:102B300005466C6A606AA84207D101202077A8691F
:102B400018BB012084F83E001FE0A06AA84207D10C
:102B500002202077A869C0B901213F20015514E067
:102B6000E06AA84207D104202077A86968B901214A
:102B70004020015509E0206BA84206D108202077AB
:102B8000A86910B90121412001552046FFF77CF8C2
:102B90000020207770BD70B505466C6A606AA84257
:102BA00002D10120207710E0A06AA84202D10220C1
:102BB00020770AE0E06AA84202D10420207704E0EE
:102BC000206BA84201D1082020772046FFF75DF84E
:102BD0000020207770BD70B505466C6A606AA84217
:102BE00004D10120207784F83E001DE0A06AA842AD
:102BF00005D10220207701213F20015514E0E06A31
:102C0000A84205D1042020770121402001550BE086
:102C1000206BA84205D108202077012141200155D1
:102C200002E0012084F83D002046FEF72DFF002041
:102C3000207770BD30B50C46816821F47F4142EAAF
:102C4000032525432943816030BD0A46816821F070
:102C5000700142F0070319438160704730B5026A82
:102C6000056A25F0010505624368846924F0700453
:102C700024F003040D682C4322F002028D682A43DD
:102C80000D4DA84206D100BF22F00802CD682A43AC
:102C900022F00402084DA84207D123F4807323F4E4
:102CA00000734D692B438D692B43436084614D68EC
:102CB0004563026230BD0000002C014030B5026A5D
:102CC000056A25F0100505624368846924F4E04430
:102CD00024F440740D6844EA052422F020028D6833
:102CE00042EA05120E4DA84207D100BF22F0800231
:102CF000CD6842EA051222F04002094DA84209D1EE
:102D000023F4806323F400634D6943EA85038D69EE
:102D100043EA8503436084614D688563026230BD88
:102D2000002C014030B5026A056A25F48075056201
:102D30004368C46924F0700424F003040D682C4334
:102D400022F400728D6842EA05220F4DA84207D195
:102D500000BF22F40062CD6842EA052222F48062BC
:102D6000094DA84209D123F4805323F400534D693F
:102D700043EA05138D6943EA05134360C4614D6856
:102D8000C563026230BD0000002C014030B5036A0B
:102D9000056A25F4805505624468C26922F4E04260
:102DA00022F440720D6842EA052223F400538D6834
:102DB00043EA0533064DA84204D124F480444D690A
:102DC00044EA85144460C2614D680564036230BD05
:102DD000002C014030B50B461446026A056A25F006
:102DE00001050562816921F0F00141EA041122F038
:102DF0000A021A438161026230BD30B50B461446A7
:102E0000026A056A25F010050562816921F47041A6
:102E100041EA043122F0A00242EA03128161026217
:102E200030BD70B505466C6A0020E085E084204620
:102E3000FFF737F870BD00BF00BF02680C3252E8E0
:102E4000002F22F4907102680C3242E80013002B2C
:102E5000F3D100BF00BF00BF0268143252E8002F58
:102E600022F001010268143242E80013002BF3D172
:102E700000BF016B01290ED100BF00BF02680C32F8
:102E800052E8002F22F0100102680C3242E80013D1
:102E9000002BF3D100BF202180F8421000210163F4
:102EA000704710B504462068C06820F040002168D3
:102EB000C860202084F841002046FFF7BDFA0020BA
:102EC00010BDF8B5044694F84200222875D1A068D8
:102ED000B0F5805F0CD1206950B90025A66A206842
:102EE0004068C0F308003080A06A801CA06215E032
:102EF000A56A0026A068B0F5805F03D0A06828B955
:102F0000206918B920684068287004E0206840688B
:102F100000F07F002870A06A401CA062E08D401E77
:102F200080B2E085002846D12068C06820F02000EB
:102F30002168C8602068C06820F480702168C8607B
:102F40002068406920F0010021684861202084F851
:102F5000420000206063206B012826D100202063FE
:102F600000BF00BF21680C3151E8001F21F01000A4
:102F700021680C3141E80002002AF3D100BF20682B
:102F8000006800F0100010280AD100BF0020009057
:102F900020680068009020684068009000BF00BF73
:102FA000A18D2046FEF77CFF02E02046FFF7E4F902
:102FB0000020F8BD01E00020FBE70220F9E7000057
:102FC00070B504462168096921F44051E268114353
:102FD000226811612269A1681143626941EA020510
:102FE0002168C96841F20C62914329432268D1608B
:102FF0002168496921F44071A26911432268516135
:103000002D4A2168914202D1FEF73AF901E0FEF71C
:1030100027F900EBC00101EB001162689200B1FBDF
:10302000F2F100EBC00202EB001263689B00B2FBFE
:10303000F3F26423B2FBF3F202EBC20303EB0212DE
:10304000A1EB8201322202EB01116422B1FBF2F109
:1030500001F0F00100EBC00202EB001263689B007C
:10306000B2FBF3F26423B2FBF3F201EB021200EBCA
:10307000C00101EB001163689B00B1FBF3F100EBB1
:10308000C00303EB00136668B600B3FBF6F36426D7
:10309000B3FBF6F303EBC30606EB0313A1EB8301CB
:1030A000322303EB01116423B1FBF3F101F00F01B3
:1030B00011442268916070BD00380140014691F8CA
:1030C0004100212828D18868B0F5805F0BD10869BC
:1030D00048B90A6A1088C0F308000B685860086A8B
:1030E000801C086205E00B6A581C086218780B689F
:1030F0005860C88C401E80B2C88458B90868C0683F
:1031000020F080000B68D8600868C06840F040007C
:103110000B68D860002070470220FCE72DE9F843D7
:1031200004460D4617469846089E31E0701C70B361
:10313000FDF7C4FDA0EB0800B04200D816B903208B
:10314000BDE8F8832068C06800F00400F8B1802D65
:103150001ED0402D1CD020680068C0F3C000B0B164
:1031600000BF002000902068006800902068406840
:10317000009000BF00BF2046FFF75DFE082060649E
:1031800000BF002084F8400000BF0120D8E7FFE71F
:10319000206800682840A84201D1012000E00020FA
:1031A000B842C3D00020CBE710B50248FEF77AFE44
:1031B00010BD0000E801002000BFFEE702480068E3
:1031C000C0F30220704700000CED00E010B50028AD
:1031D00004DB0A07130E054A135406E00A07140E0F
:1031E000034A00F00F031B1FD45410BD00E400E09D
:1031F00018ED00E070B5002500240CE00848005DE3
:1032000040B1E0B200F010F8064951F824108842AD
:1032100000D20125641C042CF0DB284670BD0000A0
:10322000A4350008A835000870B5044600252CB95F
:10323000012204218248FDF73BFD14E0012C05D159
:10324000012210217E48FDF733FD0CE0022C05D150
:103250000122D1037A48FDF72BFD04E00122102161
:103260007848FDF725FD2CB9002208217448FDF7A8
:103270001FFD14E0012C05D1002220217048FDF72C
:1032800017FD0CE0022C05D1002208216D48FDF746
:103290000FFD04E0002220216A48FDF709FD00BF70
:1032A00044B904216648FDF7FBFC012800D11FE06A
:1032B00000201DE0012C08D110216148FDF7F0FC31
:1032C000012800D114E0002012E0022C08D1A10353
:1032D0005B48FDF7E5FC012800D109E0002007E08C
:1032E00010215848FDF7DCFC012800D100E0002047
:1032F0000028D5D1002664E02CB9012208215048CD
:10330000FDF7D6FC14E0012C05D1012220214C4808
:10331000FDF7CEFC0CE0022C05D101220821494822
:10332000FDF7C6FC04E0012220214648FDF7C0FC61
:103330002CB9002208214248FDF7BAFC14E0012C08
:1033400005D1002220213E48FDF7B2FC0CE0022C02
:1033500005D1002208213B48FDF7AAFC04E0002229
:1033600020213848FDF7A4FC6D0044B904213448FD
:10337000FDF796FC012800D11FE000201DE0012C84
:1033800008D110212E48FDF78BFC012800D114E054
:10339000002012E0022C08D1A1032948FDF780FC8F
:1033A000012800D109E0002007E010212548FDF7A1
:1033B00077FC012800D100E0002008B145F00105AC
:1033C000761C182E98DB2CB9012208211C48FDF729
:1033D0006FFC14E0012C05D1012220211848FDF7D3
:1033E00067FC0CE0022C05D1012208211548FDF7ED
:1033F0005FFC04E0012220211248FDF759FC85F40E
:1034000000052CB9002208210D48FDF751FC14E0FD
:10341000012C05D1002220210948FDF749FC0CE0D0
:10342000022C05D1002208210648FDF741FC04E0EA
:10343000002220210348FDF73BFC284670BD000018
:1034400000080140000C014008B5FDF777FDFFF7CB
:10345000E7FAFFF749F8FFF715F8FFF7B7F8FFF7B6
:10346000D3F8FFF723F9FFF773F9FEF7E9FFFFF74A
:103470008BF94820FCF760FFFFF7BCF900200090B3
:1034800012E0FFF7B7FE044614B10120009001E0FE
:10349000002000902046FFF77BFA64230122694652
:1034A0000248FEF76AFF00BFEBE70000E8010020DA
:1034B000C10DD1F19E0206DB4FEA002343F0004329
:1034C00023FA02F07047004207D54FEA4001B1F1FC
:1034D000FE4F02D24FF00000704710B500F007F821
:1034E00049922480002070476FEA200070470EF157
:1034F000020E2EF0030E5EF8044B244204D44FEA71
:103500004102B2F17F4F11D84FEA4003B3F17F4F30
:103510000CD80ED14FEAD07CB2F17F4F0CEB4C0CA3
:103520000CF1020C08BF4CEBD17C04E04FF0080C0E
:1035300001E04FEAD17C0CEB4C0324FA03F404F0D5
:103540000704B4F1040C06D20EEB840CBDE8104065
:103550004CF0010C6047DFE80CF0070802024FF066
:103560000040A0F5800010BD0846420018BFD2F10F
:10357000807288BF00F0004010BD020304050607FA
:1035800008090A0B0C0D0E0F1010010200000000BC
:103590000000000001020304060708090000000003
:1035A0000102030400010101B0B37D0050A06E00D0
:1035B00020D17C00B0B37D00D83500080000002089
:1035C00054000000280100082C3600085400002098
:1035D00074450000440100080000000010000000D5
:1035E0000100000000127A0000000000000000004E
:1035F00000000000000000000000000000000000CB
:1036000000000000000000000000000000000000BA
:1036100000000000000000000000000000000000AA
:0C3620000000000000000000000100009D
:04000005080000ED02
:00000001FF
